:020000021000EC
:1000000000E402207D020100354D0500354D05005C
:10001000354D0500354D0500354D0500354D0500C4
:10002000354D0500354D0500354D0500394E0500AF
:10003000354D0500354D0500F54D0500CDAD0400ED
:1000400059AD040059AD040059AD040059AD040088
:1000500059AD040059AD040059AD040059AD040078
:1000600059AD040059AD040059AD040059AD040068
:1000700059AD040059AD040059AD040059AD040058
:1002700059AD040059AD040059AD04000B480168A4
:1002800041F470010160BFF34F8FBFF36F8FDFF850
:1002900020D0684680F30888DFF818E000F00CB83A
:1002A00000F00CF800203AF0CBFC000088ED00E0F4
:1002B00000E40220A10201003EF024BB08B5104A70
:1002C0001049114800F03EF8104A1149114800F059
:1002D00039F8114A1149124800F034F8114A12490C
:1002E000124800F02FF8124A1249134800F02AF879
:1002F000BDE80840114A1248002150F0D1BC00BFAF
:10030000789F050080030100800301001ECE0000DD
:10031000F8A20600F8A20600443900001A7107008E
:100320008002FE1F00000000167107007C02FE1F05
:1003300000000000167107007C02FE1F10A00400E0
:10034000E03BFE1F884211D0002393420ED0F0B54F
:1003500007A393E8F000F0B40DF10103033222F09B
:1003600003025218984704B0BDE8F040704700BF40
:1003700051F8043B8A4240F8043BF9D1704700BF72
:1003800010B5054C237833B9044B13B10448AFF3CF
:1003900000800123237010BDE03BFE1F0000000021
:1003A000B870070008B5034B1BB103490348AFF30E
:1003B000008008BD00000000E43BFE1FB87007008D
:1003C00080B582B000AF084B7B607B68184600F0B8
:1003D00085F97B6803F5A263184600F07FF90023D6
:1003E00018460837BD4680BDFC3BFE1F80B582B075
:1003F00000AF084B7B607B6803F5A2633B603B6802
:100400001B685B6838689847034618460837BD463E
:1004100080BD00BFFC3BFE1F80B582B000AF084B23
:100420007B607B6803F5A2633B603B681B681B68CD
:1004300038689847034618460837BD4680BD00BF58
:10044000FC3BFE1F80B584B000AF7860074BFB60BB
:10045000FB6803F5A263BB60BB681B689B68796897
:10046000B868984700BF1037BD4680BDFC3BFE1FF3
:1004700080B582B000AF074B7B607B683B603B6818
:100480001B681B6838689847034618460837BD46FE
:1004900080BD00BFFC3BFE1F80B582B000AF074BA4
:1004A0007B607B683B603B681B685B68386898478B
:1004B000034618460837BD4680BD00BFFC3BFE1F03
:1004C00080B584B000AF7860064BFB60FB68BB6012
:1004D000BB681B689B687968B868984700BF10378D
:1004E000BD4680BDFC3BFE1F80B582B000AF78608A
:1004F00039607B680433184604F089FF7B680C334D
:100500003968184601F03BF97B680433184604F05B
:10051000A2FF00BF0837BD4680BD80B582B000AFE6
:10052000786039607B680833184604F070FF7B6898
:1005300014333968184601F022F97B6808331846ED
:1005400004F089FF00BF0837BD4680BD80B483B08A
:1005500000AF78607B68002B14D07B6803F10C023D
:100560007B689A607B684FF416729A807B680022E1
:10057000DA807B680022C3F868227B68072283F850
:10058000642200E000BF0C37BD465DF8047B704775
:1005900080B584B000AF78607B68002B11D07B6899
:1005A000D3F86C32FB600023BB607B68083BBB6008
:1005B0007868FFF7CBFFBB681946F868FFF794FF30
:1005C00000E000BF1037BD4680BD000080B582B09E
:1005D00000AF786039607B68064A1A607B683A68C9
:1005E000C3F86C227868FFF7B1FF00BF0837BD463B
:1005F00080BD00BF8002FE1F80B584B000AF786070
:100600003960786801F0CBF80346002B01D0002355
:100610000DE0386804F0FBFE7B685B68FB60FB68FC
:10062000184601F0CEF8386804F015FFFB6818464C
:100630001037BD4680BD80B584B000AF78607B6860
:10064000FB60FB6803F10C02FB680433194610469B
:10065000FFF7D2FFB860BB68002B01D1002305E093
:10066000BB68FA68C3F87422BB68083318461037B1
:10067000BD4680BD80B584B000AF78607B68FB600C
:10068000FB6803F11402FB68083319461046FFF7B4
:10069000B3FFB860BB68002B01D1002305E0BB6845
:1006A000FA68C3F87422BB68083318461037BD4691
:1006B00080BD80B584B000AF786039607B68FB6036
:1006C0000023BB603B68083BBB60BB681946F86809
:1006D000FFF723FF00BF1037BD4680BD80B588B04F
:1006E00000AF78607B68494A1A600023FB6007F11D
:1006F000100300221A605A609A6007F10C0302226C
:100700004349184650F0B6F9424B1B68184607F1AA
:100710000C0202320E23022100F01AFD3D4B1B6831
:1007200001333C4A13607B681A1D07F10C03114624
:10073000184604F02BFE07F10C0310220021184686
:1007400050F0AEFA07F10C0302223349184650F07C
:1007500091F9304B1B68184607F10C0202320E2348
:10076000022100F0F5FC2D4B1B6801332B4A13606E
:100770007B6803F1080207F10C031146184604F0E8
:1007800005FE7B680C33184600F0C1FF7B6814330C
:10079000184600F0BCFF0023FB837B6802221A7717
:1007A0000023FB8327E0FB8B4FF41E7202FB03F355
:1007B00020337A681344184600F0A9FFFB8B4FF4EE
:1007C0001E7202FB03F328337A68134479681846D3
:1007D000FFF7FCFE7B6803F10C00FB8B4FF41E72ED
:1007E00002FB03F320337A681344194600F0B7FF85
:1007F000FB8B0133FB837B681B7F9BB2FA8B9A4296
:10080000D1D300BF00BF2037BD4680BD8802FE1F88
:10081000F8A206001C46FE1FFCA206002046FE1F92
:1008200080B485B000AF78600B46FB700023BB60DE
:100830000023FB730DE0BB681B02BB60FB7B7A6887
:1008400013441B781A46BB681344BB60FB7B01331F
:10085000FB73FA7BFB789A42EDD3BB6818461437DA
:10086000BD465DF8047B704780B483B000AF03469B
:100870003960FB803B680133FA88D2B21A70FB887A
:100880001B0A9BB2DAB23B681A7000BF0C37BD4638
:100890005DF8047B704780B485B000AF78607B68FA
:1008A0001B78FB81FB891B02FB817B6801331B7872
:1008B0009AB2FB891344FB81FB8918461437BD4665
:1008C0005DF8047B704780B485B000AF786000238A
:1008D000FB817B681B78FB81FB891B02FB817B68AA
:1008E00001331B789AB2FB891344FB81B7F90E30B0
:1008F00018461437BD465DF8047B704780B485B058
:1009000000AF78600B46FB700023BB600023FB73D5
:100910000DE0BB681B02BB60FB7B7A6813441B784D
:100920001A46BB681344BB60FB7B0133FB73FA7B45
:10093000FB789A42EDD3BB6818461437BD465DF884
:10094000047B704780B485B000AF78600023BB6043
:100950000323FB8111E0BB681B02BB60B7F90E30BB
:100960007A6813441B781A46BB681344BB60B7F916
:100970000E309BB2013B9BB2FB81B7F90E30002BCE
:10098000E9DABB6818461437BD465DF8047B70474A
:1009900080B487B000AF78600B467B8013467B70D5
:1009A0007B68FB607B88092B11D80CE07B681B7887
:1009B0007A789A4201D000236DE07B6801337B6036
:1009C0007B88013B7B807B88002BEFD162E0FB685A
:1009D0009BB203F00303FB82FB8A002B03D0FB8A4C
:1009E000C3F10403FB820023BB820BE0BB8AFA68DD
:1009F00013441B787A789A4201D000234BE0BB8ADB
:100A00000133BB82BA8AFB8A9A42EFD3FB8AFA6827
:100A10001344FB607A88FB8AD31A7B8000233B61F6
:100A20000023BB8209E03B691B023B617B783A698A
:100A300013433B61BB8A0133BB82BB8A032BF2D9D0
:100A40000023BB820CE0BB8A9B00FA6813441B683E
:100A50003A699A4201D000231DE0BB8A0133BB8270
:100A60007B889B089BB2BA8A9A42ECD3BB8A9B00D4
:100A7000BB820BE0BB8AFA6813441B787A789A42EF
:100A800001D0002307E0BB8A0133BB82BA8A7B888E
:100A90009A42EFD3012318461C37BD465DF8047B0C
:100AA000704780B487B000AFF860B9601346FB8030
:100AB000FB88002B17D0FB88013BBB820023FB8205
:100AC0000DE0BB8ABA681A44FB8AF9680B441278B5
:100AD0001A70BB8A013BBB82FB8A0133FB82FA8A14
:100AE000FB889A42EDD300BF1C37BD465DF8047BFE
:100AF000704780B584B000AF78600B467B801346AA
:100B00003B803B88002B25D03A887B889A4221D2B3
:100B10000023FB810DE03A88FB8913441A467B6869
:100B20001A44FB8979680B4412781A70FB890133E7
:100B3000FB81FA8979883B88CB1A9A42EBDBFB89E7
:100B40007A68D0187A88FB89D31A1A46002150F0A7
:100B5000A7F800E000BF1037BD4680BD80B485B067
:100B600000AFF860B9601346FB80FB68002B26D00D
:100B7000BB68002B23D0FB88002B20D0FA68BB6811
:100B80009A4216D207E0BA68531CBB60FB68591C36
:100B9000F96012781A70FB885A1EFA80002BF2D185
:100BA0000EE0FB88BA681A44FB88F9680B44127897
:100BB0001A70FB885A1EFA80002BF2D100E000BFA9
:100BC0001437BD465DF8047B7047000080B485B0E3
:100BD00000AF0346FB71FB790D4AA2FB0323DB0840
:100BE000DBB21B01D8B2FA79094BA3FB0213D90877
:100BF0000B469B000B445B00D31ADBB20344FB7330
:100C0000FB7B18461437BD465DF8047B704700BF78
:100C1000CDCCCCCC90B587B000AFF860B9601346AE
:100C2000FB710023FB751BE0FA68124BA3FB021358
:100C30005B09642101FB03F3D31ABB75FB7DBA6822
:100C4000D418BB7D1846FFF7C1FF03462370FB682D
:100C5000084AA2FB03235B09FB60FB7D0133FB75A4
:100C6000FA7DFB799A42DFD300BF00BF1C37BD4637
:100C700090BD00BF1F85EB5190B589B000AFF86003
:100C8000B9601346FB71FB68002BB8BF5B42BB61C8
:100C90000023FB771BE0BA69194BA3FB02135B0926
:100CA000642101FB03F3D31AFB75FB7FBA68D418E8
:100CB000FB7D1846FFF78AFF03462370BB69104A85
:100CC000A2FB03235B09BB61FB7F0133FB77FA7F48
:100CD000FB799A42DFD3FB68002B0CDAFB79013BEE
:100CE000BA6813441A78FB79013BB9680B4462F087
:100CF0007F02D2B21A7000BF2437BD4690BD00BF3C
:100D00001F85EB5180B485B000AF78600B46FB7057
:100D10000023FB7316E0FB7B7A6813441B7803F017
:100D20000F03092B01DD002311E0FB7B7A681344DC
:100D30001B7803F0F003902B01DD002307E0FB7B21
:100D40000133FB73FA7BFB789A42E4D30123184604
:100D50001437BD465DF8047B704780B586B000AFA0
:100D6000F8600B467A60FB7200237B617B6801228E
:100D70001A700023FB7430E0FB7A5A1EFB7CD31AF6
:100D80001A46FB6813441B78BB7407F11203012158
:100D90001846FFF7B7FF034683F00103DBB2002BD1
:100DA00006D00023BB747B6800221A70BB7C19E05C
:100DB0007B69642203FB02F2BB7C1B09DBB2194690
:100DC0000B469B000B445B001A44BB7C03F00F03F3
:100DD00013447B61FB7C0133FB74FA7CFB7A9A42FF
:100DE000CAD37B6918461837BD4680BD2DE9F04F40
:100DF00097B000AF78640B46FA6387F843304FF042
:100E000000024FF00003C7E91423FA6B01231370AB
:100E1000002387F84F3074E097F843305A1E97F854
:100E20004F30D31A1A467B6C13441B7887F84E3028
:100E300007F14E0301211846FFF764FF034683F0D4
:100E40000103DBB2002B0CD0002387F84E30FB6B84
:100E500000221A7097F84E30DBB20022BB62FA62B1
:100E600059E0D7E9140102460B469618BE605B4173
:100E7000FB60D7E90223141843EB01054FF0000291
:100E80004FF000036B0143EAD4636201A6183E628F
:100E900045EB03037B623B6A1B183B637B6A4B4158
:100EA0007B6397F84E301B09DBB21A4613469B0052
:100EB00013445B00DA17BB61FA613B6BD7E90601AB
:100EC000024613EB02087B6B0A4643EB020997F8D4
:100ED0004E30DBB200223B617A613B6903F00F0ABE
:100EE0004FF0000B18EB0A033B6049EB0B037B60F0
:100EF000D7E90023C7E9142397F84F30013387F867
:100F00004F3097F84F2097F843309A4284D3D7E96F
:100F10001434C7E90A34D7E90A23104619465C3766
:100F2000BD46BDE8F08F80B485B000AFC7E90201CF
:100F30003B601346FB713A7EFB799A4201D2002353
:100F400048E0FB79022B12D1D7E902014FF00002F1
:100F50004FF00003020A42EA01620B12D2B23B6870
:100F60001A703B6801333A7A1A70012332E0FB7938
:100F7000042B2ED1D7E902014FF000024FF00003FD
:100F8000020E42EA01220B16D2B23B681A70D7E970
:100F900002014FF000024FF00003020C42EA01424E
:100FA0000B1439680131D3B20B70D7E902014FF04D
:100FB00000024FF00003020A42EA01620B12396894
:100FC0000231D3B20B703B6803333A7A1A700123B3
:100FD00000E0002318461437BD465DF8047B7047D7
:100FE00080B483B000AF0346FB71FB791B09DBB211
:100FF0001A46920013445B00DAB2FB7903F00F0348
:10100000DBB21344DBB218460C37BD465DF8047BF7
:10101000704780B483B000AF03463960FB80FB8823
:10102000DAB23B681A70FB881B0A9AB23B6801333C
:10103000D2B21A7000BF0C37BD465DF8047B704712
:1010400080B483B000AF786039607B68DAB23B6807
:101050001A707B681A0A3B680133D2B21A707B6837
:101060001A0C3B680233D2B21A707B681A0E3B68C6
:101070000333D2B21A7000BF0C37BD465DF8047B53
:10108000704780B485B000AF78607B6801331B780F
:10109000FB81FB891B02FB817B681B789AB2FB8971
:1010A0001344FB81FB8918461437BD465DF8047B69
:1010B000704780B485B000AF78600B467B801346E4
:1010C0003B800023FB733B88072B12D93B88DB084E
:1010D0009BB2FB73FB7B7A6813447B60FB7B9BB208
:1010E0007A889A4201D800230EE03B8803F0070378
:1010F0003B807B681B785AB23B88012101FA03F3DD
:101100005BB213405BB2DBB218461437BD465DF8E4
:10111000047B704780B483B000AF0346FB71FB795A
:10112000092B03D8FB793033DBB20AE0FB79092BBA
:1011300006D9FB790F2B03D8FB793733DBB200E0FC
:10114000002318460C37BD465DF8047B704700004D
:1011500090B58DB000AFF8607A601A460B46FB720E
:1011600013463B81FB7A9BB23A899A425FD30023B4
:1011700087F82C3000233B6207F1240300221A6019
:101180009A8000237B6107F1180300221A609A807D
:101190000023FB8508E0FB8D30333B44302203F80D
:1011A000102CFB8D0133FB85FB8D092BF3D900231C
:1011B00087F82D3024E0F9681F4BA3FB0123DA08E0
:1011C00013469B0013445B00CA1A134687F82C3061
:1011D00097F82D305A1C87F82D201C4697F82C3094
:1011E0001846FFF797FF03461A4604F130033B44C5
:1011F00003F8102CFB68104AA2FB0323DB08FB60FA
:10120000FB68002BD7D107F1200107F114030A2254
:101210001846FFF746FCFB7AC3F10A0307F11402F4
:101220001344FA7A194678684FF024FC00E000BFB6
:101230003437BD4690BD00BFCDCCCCCC80B485B09A
:1012400000AF78600B467B8013463B803B88072BC2
:1012500012D93B88DB089BB2FB73FB7B9BB27A887D
:101260009A4201D8002312E0FB7B7A6813447B602A
:101270003B8803F007033B807B681B785AB23B88AE
:10128000012101FA03F35BB213405BB2DBB21846F3
:101290001437BD465DF8047B704780B485B000AF5D
:1012A00078600B467B8013463B803B88072B10D928
:1012B0003B88DB089BB2FB73FB7B9BB27A889A422C
:1012C00017D9FB7B7A6813447B603B8803F00703E4
:1012D0003B807B681B785AB23B88012101FA03F3FB
:1012E0005BB2DB435BB213405BB2DAB27B681A706D
:1012F00000E000BF1437BD465DF8047B704780B442
:1013000085B000AF0346FB800B46BB8013467B8055
:101310007B88012B03D9FA887B889A4201D300236A
:1013200013E0BB887A88B3FBF2F101FB02F29B1A4F
:10133000FB81FA887B881A44FB89D31A7A8893FB4D
:10134000F2F101FB02F29B1A9BB218461437BD461C
:101350005DF8047B704780B485B000AF0346FB8026
:101360000B46BB8013467B807B88012B03D9FA8810
:101370007B889A4201D3002311E0BB887A88B3FBB3
:10138000F2F101FB02F29B1AFB81FA88FB891344FC
:101390007A8893FBF2F101FB02F29B1A9BB218468A
:1013A0001437BD465DF8047B704780B483B000AF4E
:1013B0000346FB800B46BB8013467B807B88012B5A
:1013C00007D9FA887B889A4203D2BA887B889A42E6
:1013D00001D3002315E0BA88FB889A4204D9BA8861
:1013E000FB88D31A9BB20CE0BA88FB889A4207D2DA
:1013F000BA887B8813449AB2FB88D31A9BB200E068
:10140000002318460C37BD465DF8047B704700008A
:1014100080B483B000AF03463960FB801346BB80C5
:101420000EE0FB881B0A9AB2F9883B68581C3860AA
:101430001B784B40DBB20A4931F813305340FB8034
:10144000B7F904309AB2013A92B2BA80002BE8D1CF
:10145000FB8818460C37BD465DF8047B704700BF1B
:1014600000A3060080B584B000AF78600B467B8097
:10147000B7F902301A4679684FF6FF70FFF7C8FFD8
:101480000346FB81FB89DB43FB81FB891846103750
:10149000BD4680BD80B487B000AFF860B96011462A
:1014A0001A460B46FB711346BB71FB79FB75BB7982
:1014B000BB7513E0FB685A1CFA601A78FB7D534039
:1014C000DBB23B610F4A3B6913441A78BB7D534042
:1014D000FB750D4A3B6913441B78BB75BB685A1EEC
:1014E000BA60002BE6D1FB7D1B021AB2BB7D1BB29A
:1014F00013431BB29BB218461C37BD465DF8047BF4
:10150000704700BF00A5060000A6060080B586B0A3
:1015100000AFF860B9607A60FF23FF22B968F8680D
:10152000FFF7B8FF0346FB827B681A78FB8ADBB2C1
:101530009A420AD17B6801331A78FB8A1B0A9BB254
:10154000DBB29A4201D1012300E00023184618378C
:10155000BD4680BD80B485B000AF78600B467B800F
:101560004FF6FF73BB811FE07B685A1C7A601B78C3
:101570009AB2BB895340BB810023FB7311E0BB8946
:1015800003F00103002B06D0BB895B089AB20C4B19
:101590005340BB8102E0BB895B08BB81FB7B01330D
:1015A000FB73FB7B072BEAD97B885A1E7A80002BC2
:1015B000DAD1BB8918461437BD465DF8047B704705
:1015C00001A0FFFF80B586B000AFF860B9607A6017
:1015D000FF23FF22B968F868FFF75CFF0346FB8230
:1015E000FB8A79681846FFF714FD00BF1837BD461F
:1015F00080BD000080B400AF024B1846BD465DF8C8
:10160000047B70479402FE1F80B400AF024B184663
:10161000BD465DF8047B7047BC02FE1F80B485B0F8
:1016200000AFF860B9607A603B60FB6800221A6026
:10163000FB6800225A60FB6800229A60FB68012266
:101640001A73BB68002B03D1FB6805221A6102E004
:10165000FB68BA681A61FB681A69FB685A603B68E4
:10166000002B03D1FB680A229A6102E0FB683A680A
:101670009A61FB687A685A61BA69FB685A62FA69CA
:10168000FB681A6200BF1437BD465DF8047B7047E3
:1016900080B582B000AF78607B681B7B032B32D0B3
:1016A0007B681B7B002B2ED07B681A687B685B688D
:1016B0009A4205D37B6800221A607B6802221A7363
:1016C0007B681B7B022B1FD17B685B6A002B02D0DF
:1016D0007B685B6A98477B689B685A1C7B689A604A
:1016E0007B685A687B685B691A447B685A607B68D0
:1016F0009A687B689B699A4201D3032200E0012229
:101700007B681A7300E000BF0837BD4680BD80B417
:1017100083B000AF78607B687A681A607B687A680B
:101720005A6000BF0C37BD465DF8047B704780B43B
:1017300085B000AFF860B9607A607B68FA681A60BB
:10174000FB687A685A60FB68BA681A60BB68FA6816
:101750005A6000BF1437BD465DF8047B704780B502
:1017600082B000AF786039607B685B681A46796840
:101770003868FFF7DCFF00BF0837BD4680BD80B585
:1017800082B000AF786039607B681B687A68194660
:101790003868FFF7CCFF00BF0837BD4680BD80B476
:1017A00083B000AF78607B685B687A689A420CBF50
:1017B00001230023DBB218460C37BD465DF8047BDD
:1017C000704780B483B000AF78607B685B687A68EC
:1017D00012681A607B681B687A6852685A607B6876
:1017E00000221A607B6800225A6000BF0C37BD4699
:1017F0005DF8047B7047000080B485B000AF0346FD
:10180000FB800023FB73FB8803F003039BB2002BD8
:101810001CD1FB88114AA2FB03125209642101FB6F
:1018200002F29B1A9BB2002B01D00123FB73FB88B1
:101830000A4AA2FB0312D2094FF4C87101FB02F25B
:101840009B1A9BB2002B01D10123FB73FB7B184633
:101850001437BD465DF8047B704700BF1F85EB5110
:1018600080B485B000AF0346FB710B46BB711346D5
:101870007B711423FB72BB79022B1ED8BB790C330E
:10188000BB71FA79FB7A642101FB03F31344013B3A
:10189000FB60FB7A1A4692001A44D200D31A9B00CE
:1018A000DAB2FB68DBB21344FB71FB68274A82FBA8
:1018B00003125211DB17D31AFB72FB79FB60FB7921
:1018C0009B08DBB21A46FB681344FB60FB7A9B085B
:1018D000DBB21A46FB681344FB60BB7901331A2262
:1018E00002FB03F31A4A82FB03129210DB17D31A8E
:1018F000FA681344FB607B79013BFA681344FB6090
:10190000FB7A5B00FA68D31AFB6002E0FB680733DE
:10191000FB60FB68002BF9DBFA680E4B83FB0213BC
:1019200013449910D317C91A0B46DB005B1AD11A5E
:101930000B46FB72FB7A002B01D10723FB72FB7A6B
:1019400018461437BD465DF8047B70471F85EB5180
:10195000676666669324499280B582B000AF0346FD
:101960000A46FB8013467B717B79022B0AD1FB88E8
:101970001846FFF741FF0346002B01D01D2310E05E
:101980001C230EE07B79042B08D07B79062B05D035
:101990007B79092B02D07B790B2B01D11E2300E030
:1019A0001F2318460837BD4680BD80B584B000AF00
:1019B000786039607B68DA783B68DBB21344DAB26E
:1019C0007B68DA707B685B7A9BB21A46920013449C
:1019D0001A4691001A460B4613449B009AB27B6844
:1019E0005B799BB21344FB817B681A79FB891146B2
:1019F0001846FFF7B1FF03467B737B68DB787A7B81
:101A00009A4219D27B68DA787B7BD31ADAB27B6888
:101A1000DA707B681B790133DAB27B681A717B68F4
:101A20001B790C2B08D97B685B790133DAB27B68B0
:101A30005A717B6801221A7100BF1037BD4680BD04
:101A400080B584B000AF786039603B68FB60FB68AC
:101A50003E4AA2FB03235B093B60FA683B4BA3FBB6
:101A6000021359090B461B015B1A9B00D31AFB603A
:101A70007B681A78FB68DBB21344DAB27B681A70B1
:101A80007B681B783B2B08D97B681B783C3BDAB220
:101A90007B681A703B6801333B603B68FB60FB6806
:101AA0002A4AA2FB03235B093B60FA68274BA3FB8E
:101AB000021359090B461B015B1A9B00D31AFB60EA
:101AC0007B685A78FB68DBB21344DAB27B685A70E1
:101AD0007B685B783B2B08D97B685B783C3BDAB250
:101AE0007B685A703B6801333B603B68FB60FB6876
:101AF000174AA2FB03231B093B60FA68144BA3FBA4
:101B0000021319090B465B000B44DB00D31AFB6080
:101B10007B689A78FB68DBB21344DAB27B689A7010
:101B20007B689B78172B08D97B689B78183BDAB2C7
:101B30007B689A703B6801333B6039687868FFF7CF
:101B400034FF00BF1037BD4680BD00BF898888883C
:101B5000ABAAAAAA80B584B000AF786039607B6870
:101B6000002B22D03B68FB600023BB60FB68114A5E
:101B7000A2FB03239B09BB60FB680E4AA2FB031276
:101B800092094FF47A7101FB02F29B1AFB60FB6829
:101B90001B0ADAB27B68DA71FB68DAB27B689A7189
:101BA000B9687868FFF74CFF00E000BF1037BD460A
:101BB00080BD00BFD34D6210B0B48BB000AF786071
:101BC0002B4B07F10C041D460FCD0FC495E8070001
:101BD00003C422807B685B79632B01D9002341E039
:101BE0007B681B79002B03D07B681B790C2B01D9F8
:101BF000002337E07B685B7903F00303DBB2002B43
:101C00000CBF01230023DBB287F827307B68DB7829
:101C1000002B12D07B68D97897F827207B681B7936
:101C2000184613465B0013449B00134428333B447F
:101C300003441C3B1B78994201D9002312E07B68C6
:101C40009B78172B01D900230CE07B685B783B2B3A
:101C500001D9002306E07B681B783B2B01D90023C8
:101C600000E0012318462C37BD46B0BC704700BFCA
:101C700000A7060080B483B000AF78607B680022C4
:101C80005A617B685A697B681A617B68084A1A60E6
:101C90007B68084A5A607B68074A9A607B68074AF3
:101CA000DA6000BF0C37BD465DF8047B704700BFAB
:101CB0000123456789ABCDEFFEDCBA98765432102C
:101CC00080B588B000AFF860B9607A60FB681B69C6
:101CD000DB0803F03F03BB61FB681A697B68DB002C
:101CE0001A44FB681A61FB681A697B68DB009A4238
:101CF00004D2FB685B695A1CFB685A61FB685A692D
:101D00007B685B0F1A44FB685A61BB69C3F14003EF
:101D10007B617A687B699A4224D3BB691833FA687D
:101D200013447A69B968184600F039FFFA68FB680D
:101D300018331946104600F075F87B69FB6109E01D
:101D4000F868BA68FB691344194600F06BF8FB6940
:101D50004033FB61FB693F337A689A42F0D8002335
:101D6000BB6101E00023FB61BB691833FA68D0183E
:101D7000BA68FB69D1187A68FB69D31A1A4600F071
:101D80000EFF00BF2037BD4680BD80B596B000AFC6
:101D90007860396080233B7201237B6508E007F19E
:101DA00008027B6D134400221A707B6D01337B6542
:101DB0007B6D3F2BF3D93B6803F1100107F148031A
:101DC0000822184600F064FE3B681B69DB0803F03C
:101DD0003F037B657B6D372B03D87B6DC3F13803E5
:101DE00002E07B6DC3F178033B6507F108033A6DB0
:101DF00019463868FFF764FF07F1480308221946BF
:101E00003868FFF75DFF3B6810221946786800F0DC
:101E10003FFE58220021386800F0E0FE00BF58372E
:101E2000BD4680BD80B596B000AF786039607B68F4
:101E30001B687B657B685B683B657B689B68FB64B4
:101E40007B68DB68BB6407F10803402239681846E9
:101E500000F068FE3A6DFB6C1A403B6DD943BB6CD9
:101E60000B401A43BB681A447B6D1A44A24B1344BF
:101E70007B657B6D4FEA73637B657A6D3B6D1344C5
:101E80007B657A6D3B6D1A407B6DD943FB6C0B40D3
:101E90001A43FB681A44BB6C1A44984B1344BB6446
:101EA000BB6C4FEA3353BB64BA6C7B6D1344BB64A9
:101EB000BA6C7B6D1A40BB6CD9433B6D0B401A4327
:101EC0003B691A44FB6C1A448D4B1344FB64FB6C56
:101ED0004FEAF333FB64FA6CBB6C1344FB64FA6C9B
:101EE000BB6C1A40FB6CD9437B6D0B401A437B697A
:101EF0001A443B6D1A44834B13443B653B6D4FEAD8
:101F0000B3233B653A6DFB6C13443B653A6DFB6C48
:101F10001A403B6DD943BB6C0B401A43BB691A4452
:101F20007B6D1A44784B13447B657B6D4FEA73637A
:101F30007B657A6D3B6D13447B657A6D3B6D1A4012
:101F40007B6DD943FB6C0B401A43FB691A44BB6C95
:101F50001A446E4B1344BB64BB6C4FEA3353BB64EF
:101F6000BA6C7B6D1344BB64BA6C7B6D1A40BB6C5E
:101F7000D9433B6D0B401A433B6A1A44FB6C1A442D
:101F8000634B1344FB64FB6C4FEAF333FB64FA6C62
:101F9000BB6C1344FB64FA6CBB6C1A40FB6CD943FA
:101FA0007B6D0B401A437B6A1A443B6D1A44594BB4
:101FB00013443B653B6D4FEAB3233B653A6DFB6CC5
:101FC00013443B653A6DFB6C1A403B6DD943BB6CC7
:101FD0000B401A43BB6A1A447B6D1A444E4B1344A0
:101FE0007B657B6D4FEA73637B657A6D3B6D134454
:101FF0007B657A6D3B6D1A407B6DD943FB6C0B4062
:102000001A43FB6A1A44BB6C1A44444B1344BB6426
:10201000BB6C4FEA3353BB64BA6C7B6D1344BB6437
:10202000BA6C7B6D1A40BB6CD9433B6D0B401A43B5
:102030003B6B1A44FB6C1344A3F524434F3BFB64F6
:10204000FB6C4FEAF333FB64FA6CBB6C1344FB6428
:10205000FA6CBB6C1A40FB6CD9437B6D0B401A4386
:102060007B6B1A443B6D1A442D4B13443B653B6D0F
:102070004FEAB3233B653A6DFB6C13443B653A6D05
:10208000FB6C1A403B6DD943BB6C0B401A43BB6BD6
:102090001A447B6D1A44234B13447B657B6D4FEAD6
:1020A00073637B657A6D3B6D13447B657A6D3B6D25
:1020B0001A407B6DD943FB6C0B401A43FB6B1A44EF
:1020C000BB6C1A44184B1344BB64BB6C4FEA3353CC
:1020D000BB64BA6C7B6D1344BB64BA6C7B6D1A40F5
:1020E000BB6CD9433B6D0B401A433B6C1A44FB6CF1
:1020F0001A440E4B13441BE078A46AD756B7C7E8BE
:10210000DB702024EECEBDC1AF0F7CF52AC6874719
:10211000134630A8019546FDD8988069AFF7448BE7
:10212000BED75C892211906B937198FD8E4379A67E
:10213000FB64FB6C4FEAF333FB64FA6CBB6C134437
:10214000FB64FA6CBB6C1A40FB6CD9437B6D0B4093
:102150001A437B6C1A443B6D1A44A24B13443B65F3
:102160003B6D4FEAB3233B653A6DFB6C13443B6513
:102170003A6DBB6C1A40BB6CD943FB6C0B401A43E5
:10218000FB681A447B6D1A44974B13447B657B6D47
:102190004FEAF3637B657A6D3B6D13447B657A6D23
:1021A000FB6C1A40FB6CD9433B6D0B401A433B6AF6
:1021B0001A44BB6C1A448D4B1344BB64BB6C4FEA8E
:1021C000F353BB64BA6C7B6D1344BB64BA6C3B6D58
:1021D0001A403B6DD9437B6D0B401A437B6B1A440D
:1021E000FB6C1A44824B1344FB64FB6C4FEAB34311
:1021F000FB64FA6CBB6C1344FB64FA6C7B6D1A4095
:102200007B6DD943BB6C0B401A43BB681A443B6DD2
:102210001A44784B13443B653B6D4FEA33333B65BF
:102220003A6DFB6C13443B653A6DBB6C1A40BB6C5A
:10223000D943FB6C0B401A43FB691A447B6D1A446B
:102240006D4B13447B657B6D4FEAF3637B657A6D61
:102250003B6D13447B657A6DFB6C1A40FB6CD94374
:102260003B6D0B401A433B6B1A44BB6C1A44634BE7
:102270001344BB64BB6C4FEAF353BB64BA6C7B6D15
:102280001344BB64BA6C3B6D1A403B6DD9437B6D04
:102290000B401A437B6C1A44FB6C1A44584B134492
:1022A000FB64FB6C4FEAB343FB64FA6CBB6C1344F6
:1022B000FB64FA6C7B6D1A407B6DD943BB6C0B40A1
:1022C0001A43BB691A443B6D1A444E4B13443B6599
:1022D0003B6D4FEA33333B653A6DFB6C13443B6512
:1022E0003A6DBB6C1A40BB6CD943FB6C0B401A4374
:1022F000FB6A1A447B6D1A44434B13447B657B6D28
:102300004FEAF3637B657A6D3B6D13447B657A6DB1
:10231000FB6C1A40FB6CD9433B6D0B401A433B6C82
:102320001A44BB6C1A44394B1344BB64BB6C4FEA70
:10233000F353BB64BA6C7B6D1344BB64BA6C3B6DE6
:102340001A403B6DD9437B6D0B401A437B691A449D
:10235000FB6C1A442E4B1344FB64FB6C4FEAB343F3
:10236000FB64FA6CBB6C1344FB64FA6C7B6D1A4023
:102370007B6DD943BB6C0B401A43BB6A1A443B6D5F
:102380001A44244B13443B653B6D4FEA33333B65A2
:102390003A6DFB6C13443B653A6DBB6C1A40BB6CE9
:1023A000D943FB6C0B401A43FB6B1A447B6D1A44F8
:1023B000194B13447B657B6D4FEAF3637B657A6D44
:1023C0003B6D13447B657A6DFB6C1A40FB6CD94303
:1023D0003B6D0B401A433B691A44BB6C1A440F4BCC
:1023E00013441DE02108B44962251EF640B340C0E5
:1023F000515A5E26AAC7B6E95D102FD6531444027F
:1024000081E6A1D8C8FBD3E7E6CDE121D60737C3E3
:10241000870DD5F4ED145A4505E9E3A9F8A3EFFCBF
:10242000BB64BB6C4FEAF353BB64BA6C7B6D134463
:10243000BB64BA6C3B6D1A403B6DD9437B6D0B405E
:102440001A437B6A1A44FB6C1A44A04B1344FB6486
:10245000FB6C4FEAB343FB64FA6CBB6C1344FB6444
:10246000FA6C7B6D1A407B6DD943BB6C0B401A43F1
:10247000BB6B1A443B6D1A44954B13443B653B6D53
:102480004FEA33333B653A6DFB6C13443B653A6D61
:10249000FB6C5A40BB6C5A40FB691A447B6D134479
:1024A000A3F5B823A3F2BE637B657B6D4FEA33735C
:1024B0007B657A6D3B6D13447B657A6D3B6D5A404D
:1024C000FB6C5A40BB6A1A44BB6C1A44814B1344E0
:1024D000BB64BB6C4FEA7353BB64BA6C7B6D134433
:1024E000BB64BA6C7B6D5A403B6D5A407B6B1A449F
:1024F000FB6C1A44784B1344FB64FB6C4FEA334388
:10250000FB64FA6CBB6C1344FB64FA6CBB6C5A4002
:102510007B6D5A403B6C1A443B6D1A446F4B13441D
:102520003B653B6D4FEA73233B653A6DFB6C13448F
:102530003B653A6DFB6C5A40BB6C5A40FB681A44D1
:102540007B6D1A44664B13447B657B6D4FEA337396
:102550007B657A6D3B6D13447B657A6D3B6D5A40AC
:10256000FB6C5A40BB691A44BB6C1A445D4B134464
:10257000BB64BB6C4FEA7353BB64BA6C7B6D134492
:10258000BB64BA6C7B6D5A403B6D5A407B6A1A44FF
:10259000FB6C1A44544B1344FB64FB6C4FEA33430B
:1025A000FB64FA6CBB6C1344FB64FA6CBB6C5A4062
:1025B0007B6D5A403B6B1A443B6D1A444B4B1344A2
:1025C0003B653B6D4FEA73233B653A6DFB6C1344EF
:1025D0003B653A6DFB6C5A40BB6C5A40FB6B1A442E
:1025E0007B6D1A44424B13447B657B6D4FEA33731A
:1025F0007B657A6D3B6D13447B657A6D3B6D5A400C
:10260000FB6C5A40BB681A44BB6C1A44394B1344E8
:10261000BB64BB6C4FEA7353BB64BA6C7B6D1344F1
:10262000BB64BA6C7B6D5A403B6D5A407B691A445F
:10263000FB6C1A44304B1344FB64FB6C4FEA33438E
:10264000FB64FA6CBB6C1344FB64FA6CBB6C5A40C1
:102650007B6D5A403B6A1A443B6D1A44274B134426
:102660003B653B6D4FEA73233B653A6DFB6C13444E
:102670003B653A6DFB6C5A40BB6C5A40FB6A1A448E
:102680007B6D1A441E4B13447B657B6D4FEA33739D
:102690007B657A6D3B6D13447B657A6D3B6D5A406B
:1026A000FB6C5A40BB6B1A44BB6C1A44154B134469
:1026B000BB64BB6C4FEA7353BB64BA6C7B6D134451
:1026C000BB64BA6C7B6D5A401EE000BFD9026F67D5
:1026D0008A4C2A8D81F6718722619D6D0C38E5FD4B
:1026E00044EABEA4A9CFDE4B604BBBF670BCBFBEB4
:1026F000C67E9B28FA27A1EA8530EFD4051D880401
:1027000039D0D4D9E599DBE63B6D5A407B6C1A444D
:10271000FB6C1A44A24B1344FB64FB6C4FEA33433B
:10272000FB64FA6CBB6C1344FB64FA6CBB6C5A40E0
:102730007B6D5A403B691A443B6D1A44994B1344D4
:102740003B653B6D4FEA73233B653A6DFB6C13446D
:102750003B65BB6CDA433B6D1A43FB6C5A40BB686C
:102760001A447B6D1A44904B13447B657B6D4FEA92
:10277000B3637B657A6D3B6D13447B65FB6CDA4319
:102780007B6D1A433B6D5A407B6A1A44BB6C1A44FA
:10279000864B1344BB64BB6C4FEAB353BB64BA6C47
:1027A0007B6D1344BB643B6DDA43BB6C1A437B6D9A
:1027B0005A403B6C1A44FB6C1A447D4B1344FB6437
:1027C000FB6C4FEA7343FB64FA6CBB6C1344FB6411
:1027D0007B6DDA43FB6C1A43BB6C5A40FB691A44AD
:1027E0003B6D1A44734B13443B653B6D4FEAF32337
:1027F0003B653A6DFB6C13443B65BB6CDA433B6D48
:102800001A43FB6C5A40BB6B1A447B6D1A446A4BEB
:1028100013447B657B6D4FEAB3637B657A6D3B6DDB
:1028200013447B65FB6CDA437B6D1A433B6D5A4066
:102830007B691A44BB6C1A44604B1344BB64BB6C89
:102840004FEAB353BB64BA6C7B6D1344BB643B6DFE
:10285000DA43BB6C1A437B6D5A403B6B1A44FB6CEA
:102860001344A3F58013A3F68333FB64FB6C4FEA98
:102870007343FB64FA6CBB6C1344FB647B6DDA43FB
:10288000FB6C1A43BB6C5A40FB681A443B6D1A44FC
:102890004B4B13443B653B6D4FEAF3233B653A6D6D
:1028A000FB6C13443B65BB6CDA433B6D1A43FB6C1A
:1028B0005A40BB6A1A447B6D1A44424B13447B65F1
:1028C0007B6D4FEAB3637B657A6D3B6D13447B652B
:1028D000FB6CDA437B6D1A433B6D5A407B6C1A44A8
:1028E000BB6C1A44384B1344BB64BB6C4FEAB35304
:1028F000BB64BA6C7B6D1344BB643B6DDA43BB6C49
:102900001A437B6D5A403B6A1A44FB6C1A442F4BA6
:102910001344FB64FB6C4FEA7343FB64FA6CBB6CBF
:102920001344FB647B6DDA43FB6C1A43BB6C5A4067
:10293000FB6B1A443B6D1A44254B13443B653B6DBE
:102940004FEAF3233B653A6DFB6C13443B65BB6C6C
:10295000DA433B6D1A43FB6C5A40BB691A447B6DEA
:102960001A441C4B13447B657B6D4FEAB3637B6554
:102970007A6D3B6D13447B65FB6CDA437B6D1A43C8
:102980003B6D5A407B6B1A44BB6C1A44124B134488
:10299000BB64BB6C4FEAB353BB64BA6C1EE000BFB0
:1029A000F87CA21F6556ACC4442229F497FF2A4341
:1029B000A72394AB39A093FCC3595B6592CC0C8FD1
:1029C000D15D84854F7EA86FE0E62CFE144301A301
:1029D000A111084E827E53F735F23ABD7B6D134448
:1029E000BB643B6DDA43BB6C1A437B6D5A403B6959
:1029F0001A44FB6C1A44244B1344FB64FB6C4FEAEF
:102A00007343FB64FA6CBB6C1344FB647B6DDA4369
:102A1000FB6C1A43BB6C5A40FB6A1A443B6D1A4468
:102A20001A4B13443B653B6D4FEAF3233B653A6D0C
:102A3000FB6C13443B657B681A687B6D1A447B68AA
:102A40001A607B68043319687B6804333A6D0A4462
:102A50001A607B68083319687B680833FA6C0A448B
:102A60001A607B680C3319687B680C33BA6C0A44B3
:102A70001A6007F1080340220021184600F0AEF862
:102A800000BF5837BD4680BDBBD2D72A91D386EB55
:102A900080B487B000AFF860B9607A6000237B61D2
:102AA00000233B6133E07B699B00BA6813441968DB
:102AB000FA683B691344CAB21A707B699B00BA6812
:102AC00013441B68190A3B690133FA681344CAB2FC
:102AD0001A707B699B00BA6813441B68190C3B6928
:102AE0000233FA681344CAB21A707B699B00BA6851
:102AF00013441B68190E3B690333FA681344CAB2C6
:102B00001A707B6901337B613B6904333B613A692D
:102B10007B689A42C7D300BF00BF1C37BD465DF833
:102B2000047B704780B487B000AFF860B9607A600A
:102B300000237B6100233B6126E0BA683B691344B4
:102B40001B7819463B690133BA6813441B781B0292
:102B500041EA03023B690233B9680B441B781B044A
:102B600042EA03013B690333BA6813441B781A062F
:102B70007B699B00F86803440A431A607B69013350
:102B80007B613B6904333B613A697B689A42D4D3E9
:102B900000BF00BF1C37BD465DF8047B704780B4A2
:102BA00087B000AFF860B9607A6000237B610AE00B
:102BB000BA687B691A44F9687B690B4412781A7009
:102BC0007B6901337B617A697B689A42F0D300BFED
:102BD00000BF1C37BD465DF8047B704780B487B0EA
:102BE00000AFF860B9607A6000237B6108E0FA68A2
:102BF0007B691344BA6852B21A707B6901337B61F6
:102C00007A697B689A42F2D300BF00BF1C37BD4689
:102C10005DF8047B704780B584B000AF0346FB715C
:102C20004BF6AA33BB814FF48051002003F0C0FB68
:102C30000346002B06D107F10C030222194600209F
:102C400003F0E9FB00BF1037BD4680BD80B582B000
:102C500000AF78604FF48051786803F0A9FB034619
:102C600018460837BD4680BD80B584B000AFF86017
:102C7000B9607A607A68B968F86803F0CCFB0346FB
:102C800018461037BD4680BD80B584B000AFF860EF
:102C9000B9607A607A68B968F86803F09EFB034609
:102CA00018461037BD4680BD80B489B000AFF860CB
:102CB0000B467A607B811023FB75FA7D7B68B3FB42
:102CC000F2F101FB02F29B1AFB770023BB613FE0AC
:102CD0007B68DAB2BB69DBB21344BB757A68BB6947
:102CE00013441B0ADAB2BB7D1343BB757A68BB6918
:102CF00013441B0CDAB2BB7D1343BB757A68BB6906
:102D000013441B0EDAB2BB7D1343BB75FA68BB6973
:102D100013441B785AB2FB7F591CF9771946124BA2
:102D20005B5C303BDBB25BB253405AB297F9163072
:102D3000534059B2FA68BB691344CAB21A70FA7F99
:102D4000FB7D9A4201D30023FB77BB690133BB6152
:102D50007B89BA699A42BBD300BF00BF2437BD4606
:102D60005DF8047B704700BF24A7060080B584B0DF
:102D700000AF03463960FB711346BB803B68B3F577
:102D8000002F02D8BB88002B02D14FF0FF3334E074
:102D9000BB883A68B2FBF3F399B2BA883B68B3FBDD
:102DA000F2F000FB02F29B1A002B01D0012300E09D
:102DB00000230B44FB81134B01221A70114AFB794B
:102DC0005370104ABB8853800E4AFB8993800D4B89
:102DD0004FF480429A600B4B4FF40422DA60094AA8
:102DE0003B6813611122FF2107484DF059FF1C2257
:102DF000FF2106484DF054FF002318461037BD460A
:102E000080BD00BF2446FE1F3846FE1F4C46FE1FF5
:102E100080B584B000AF03463960FB801346BB80A9
:102E20000023BB810023FB81FB88002B09D1174BBA
:102E30000022DA80154B164A1A60144B9B88FB81DE
:102E400005E0124B9A88114BDB88D31AFB81BA88B4
:102E5000FB89934228BF1346BB81BB89002B11D04D
:102E60000A4BDB881A460A4B1344BA89396818465C
:102E70004DF000FE054BDA88BB8913449AB2034B30
:102E8000DA8000E000BF1037BD4680BDE402FE1FBF
:102E90007046FE1F80B588B000AFF860B960134679
:102EA000FB800023FB8300233B830023BB830023A1
:102EB000FB760023FB75FB88092B01D80023C2E0B9
:102EC00008226349B8684DF0A3FD0346002B01D0EA
:102ED0000223B8E00823FB83FB8BBA68134418462F
:102EE000FEF7CFF803463B83FB8B0233FB83FA8B61
:102EF0003B8B1A44FB889A4201DB0023A3E00023AA
:102F0000FB760023BB8309E0BB8BBA6813441A78B5
:102F1000FB7E1344FB76BB8B0133BB83BA8B398BAF
:102F2000FB8B0B449A42EFDB3A8BFB8B13441A4624
:102F3000BB6813441B78FA7E9A4201D0022382E0D8
:102F40003B8B002B01D102237DE0FB8B5A1CFA83C3
:102F50001A46BB6813441B78FB75FB7D002B01D11F
:102F6000022370E00023BB8367E0FB8B5A1CFA83CB
:102F70001A46BB6813441B78BB75FB8B5A1CFA833B
:102F80001A46BB6813441B787B75BB7D062B4CD857
:102F900001A252F823F000BFB52F01002B30010031
:102FA000CB2F0100DF2F0100F32F010001300100C2
:102FB0000F300100FB8BBA6813441846FEF761F826
:102FC00003461A46FB689A802FE0FB8BBA681344CD
:102FD0001846FDF7B7FC0246FB681A6025E0FB685F
:102FE000981DFB8BBA6813447A7D19464DF042FD5B
:102FF0001BE0FB8BBA6813441A78FB689A7614E0DE
:10300000FB8BBA6813441A78FB68DA760DE07B7D97
:10301000042B09D8FB6803F11600FB8BBA68134434
:103020007A7D19464DF026FD00BF7B7D9AB2FB8B61
:103030001344FB83BB8B0133BB83FB7D9BB2BA8BF9
:103040009A4292D3012318462037BD4680BD00BF67
:103050001CA7060080B483B000AF78600123184637
:103060000C37BD465DF8047B7047000080B588B022
:1030700000AF03463960FB801346BB8000233B61F1
:103080000023FB600023FB610023BB6100237B6105
:10309000944B1B7883F00103DBB2002B17D1914BCB
:1030A0009B88FA889A4212D23B68002B0FD08D4B36
:1030B0005B88BA889A420AD88A4B5B88BA889A4257
:1030C00008D2FA88874B9B88013B9A4202DA4FF07C
:1030D000FF3303E1FB880133824A528802FB03F38A
:1030E000FB60FB68B3F5007F12D8BA88FB883968AB
:1030F0001846FFF78DFE7C4B1B687B4AD288194629
:103100007A48FFF7C7FE03461A46764B83F84420F9
:10311000744B93F84430012B16D17448FFF79AFF93
:10312000034683F00103DBB2002B04D16D4B93F80F
:103130004230012B02D04FF0FF33CFE0694B9B8D23
:10314000DAB2684B5A7007E0664B93F84430022BB2
:1031500002D14FF0FF33C1E0FB88012B37D9FB8848
:10316000604A528802FB03F3B3F5007F11DAFB6873
:10317000A3F50073FB610023BB61FB88594A5288A9
:1031800002FB03F3C3F500731A463B6813447B61EB
:1031900016E0FB88534A528802FB03F3A3F5007341
:1031A000BB61BB88FB613B687B61FA884D4B9B88A8
:1031B000013B9A4204D14B4B9A6ABB69D31AFB611B
:1031C000FB699BB2BA6919467869FFF76DFD454BFB
:1031D0005B881A46FB8802FB03F3002B01DA03F637
:1031E000FF731B137B813F4B5B881A46FB880133BF
:1031F00002FB03F3013B002B01DA03F6FF731B1301
:103200003B817B8901331B031946364BDA68354B0A
:103210009B68D31A99421CD87B891A4611213448DD
:10322000FEF70CF80346002B13D02E4B9B687A89CF
:10323000120313441846FFF709FD0346002B02D082
:103240004FF0FF334AE07B891A4611212848FEF7E8
:1032500024F83B8901331B031946224BDA68214BC2
:103260009B68D31A99421CD83B891A4611212048E1
:10327000FDF7E4FF0346002B13D01A4B9B683A89F5
:10328000120313441846FFF7E1FC0346002B02D05B
:103290004FF0FF3322E03B891A4611211448FDF715
:1032A000FCFFFB8801330F4A528802FB03F3B3F59E
:1032B000002F0FDC0B4B9B68FA880A49498801FBF9
:1032C00002F21344BA8839681846FFF7CDFC03466A
:1032D000002B02D04FF0FF3300E03B691846203747
:1032E000BD4680BD2446FE1FE402FE1F4C46FE1F65
:1032F0003846FE1F80B5A2B000AF78600023FB60A7
:1033000007F1100300221A605A609A603D4BBB67B8
:103310007B681B68B3F5002F01D900236DE07B6843
:103320001B68C7F88430C023A7F87630364B9B68FB
:1033300003F50073C7F8803007F11C031846FEF749
:1033400099FC31E0B7F87630D7F884209A4204D35C
:10335000B7F87630A7F87C3003E0D7F88430A7F8C8
:103360007C30B7F87C301A46B96FD7F88000FFF789
:103370008BFC0346002B01D000233EE0B7F87C20F5
:1033800007F11C03B96F1846FEF79AFCB7F87C30BA
:10339000D7F880201344C7F88030B7F87C30D7F8CE
:1033A0008420D31AC7F88430D7F88430002BC9D1D1
:1033B00007F11C0207F10C0311461846FEF7E5FC65
:1033C0000023A7F87E3013E0B7F87E307A68134404
:1033D0009A79B7F87E3088333B4413F87C3C9A42A4
:1033E00001D0002309E0B7F87E300133A7F87E3022
:1033F000B7F87E300F2BE7D9012318468837BD4632
:1034000080BD00BF7046FE1F2446FE1F80B500AF82
:103410000848FFF76FFF034683F00103DBB2002B80
:1034200002D04FF0FF3303E0034B01221A70002358
:10343000184680BD4C46FE1F6C46FE1F80B400AF90
:10344000054B1B78012B14BF01230023DBB2184668
:10345000BD465DF8047B70476C46FE1F80B500AF2B
:103460000B4B1B78012B11D10120FFF7D4FB482215
:10347000002108484DF014FC054B00221A704FF44F
:10348000FA7001F057FF0FF027F900E000BF80BD90
:103490006C46FE1F2446FE1F80B485B000AF7860E6
:1034A000084611461A4603467B800B467B7013463E
:1034B0003B7010E07B685A1C7A601A787B78534026
:1034C000FB73FB7B0D4AD25C3B7853407B70FB7BEC
:1034D0000B4AD35C3B707B885A1E7A80002BE9D163
:1034E0007B781B021AB23B781BB213431BB29BB210
:1034F00018461437BD465DF8047B704734A70600B4
:1035000034A80600F0B597B00CAF7860494B1B7833
:1035100083F00103DBB2002B40F08880454B1B7821
:10352000002B0ED07B680393434B02934FF0300285
:103530004FF00003CDE90023404A0221404802F049
:10354000A7FA0023FB8407F11403184600F0D8F90A
:10355000FB7E1B02BA7E13443A4A82FB031291118E
:10356000DA178A1A4FF47A7101FB02F29A1A13469B
:10357000FB84304B1B78002B26D07B7E1A463B7E8B
:103580001946FB7D1846BB7D1C467B7D1D463B7D59
:103590001E46FB8C3B6097F81CC063460A933B6851
:1035A0000993089607950694059004910392264B7B
:1035B00002934FF03D024FF00003CDE900231F4A74
:1035C00002211F4802F064FA4FF0FF333B6207F11B
:1035D0000C030722FF2118464DF062FB07F10C0394
:1035E0000221184600F004FA38623B6A002B1ED113
:1035F000104B1B78002B1AD0BB7C7A7C397CB87BB3
:103600007C7B3D7B0895079406900591049203937B
:103610000E4B02934FF048024FF00003CDE9002318
:10362000064A0221064802F033FA00E000BF2C37B8
:10363000BD46F0BD3047FE1F38A90600DCAB0600D2
:1036400034A90600D34D62103CA9060068A9060003
:1036500080B400AF024B1846BD465DF8047B70474E
:103660003447FE1F80B582B000AF78603960FFF745
:10367000EFFF03465A690A325A6100F005F800BFAD
:103680000837BD4680BD000080B582B000AFFFF7AF
:10369000DFFF034658680023044A0A2144F07EFDF8
:1036A00003467B6000BF0837BD4680BD653601001C
:1036B00080B500AFFFF7CCFF03460433194602483C
:1036C00044F01EFD00BF80BD524D545280B584B001
:1036D00004AFFFF7BDFF03465B68184644F06EFC7D
:1036E000094B1B78002B0CD0084B02934FF096022D
:1036F0004FF00003CDE90023054A0221054802F0FE
:10370000C7F900BFBD4680BD3047FE1F84A9060033
:10371000F4AB060034A9060080B584B004AFFFF70F
:1037200097FF034601221A76094B1B78002B0CD019
:10373000084B02934FF0A4024FF00003CDE90023A1
:10374000054A0221054802F0A3F900BFBD4680BD2D
:103750003047FE1F98A9060004AC060034A90600F5
:1037600080B584B004AFFFF773FF034600221A76DA
:10377000094B1B78002B0CD0084B02934FF0B20280
:103780004FF00003CDE90023054A0221054802F06D
:103790007FF900BFBD4680BD3047FE1FA8A90600C7
:1037A00014AC060034A9060080B500AFFFF750FF47
:1037B00003461B7E184680BDB0B48BB000AF786066
:1037C0002B4B07F10C041D460FCD0FC495E80700E5
:1037D00003C422807B689B79632B01D9002341E0DD
:1037E0007B685B79002B03D07B685B790C2B01D95C
:1037F000002337E07B689B7903F00303DBB2002BE7
:103800000CBF01230023DBB287F827307B681B79CC
:10381000002B12D07B68197997F827207B685B7999
:10382000184613465B0013449B00134428333B4463
:1038300003441C3B1B78994201D9002312E07B68AA
:103840009B78172B01D900230CE07B685B783B2B1E
:1038500001D9002306E07B681B783B2B01D90023AC
:1038600000E0012318462C37BD46B0BC704700BFAE
:10387000B8A9060080B483B000AF786039603B68B7
:103880009A797B685A713B685A797B681A713B68F0
:103890001A797B68DA703B689A787B689A703B6823
:1038A0005A787B685A703B681A787B681A7000BF38
:1038B0000C37BD465DF8047B704780B483B000AF21
:1038C000786039603B685A797B689A713B681A79ED
:1038D0007B685A713B68DA787B681A713B689A7822
:1038E0007B689A703B685A787B685A703B681A7894
:1038F0007B681A7000BF0C37BD465DF8047B7047CB
:1039000080B586B000AF7860FFF7A2FE024607F1EF
:103910000C03083207CA03C31A80FFF799FE034657
:10392000184601F074FDFFF793FE03465A6907F14C
:103930000C0311461846FEF70DF97B7C124AA2FBD8
:1039400003125209642101FB02F29B1ADBB27B7461
:103950007B7C397CFA7B1846FDF782FF03463B757A
:103960007B681A4607F10C0303CB106051601B887B
:103970001381FFF76DFE0346184601F06CFD00BF92
:103980001837BD4680BD00BF1F85EB5180B483B0A2
:1039900000AF786039603B689A797B689B799A427E
:1039A0001DD13B685A797B685B799A4217D13B6895
:1039B0001A797B681B799A4211D13B689A787B68A7
:1039C0009B789A420BD13B685A787B685B789A4225
:1039D00005D13B681A787B681B789A4201D0002396
:1039E00000E0012318460C37BD465DF8047B7047A4
:1039F00080B58AB000AF78600B46FB704FF0FF33A4
:103A00003B624FF0FF33FB610722FF2178684DF0E6
:103A100047F9002387F8273048E007F1140307220D
:103A2000AA2118464DF03CF907F11403184602F09C
:103A30002EFF38623B6AB3F1FF3F2FD007F10C0332
:103A40000722552118464DF02BF907F10C031846B3
:103A500002F01DFFF861FB69B3F1FF3F20D007F1D1
:103A60000C0207F1140311461846FFF78FFF0346B7
:103A7000002B16D007F114031846FFF79DFE0346EE
:103A8000002B0ED07B681A4607F10C0318681060F3
:103A900099889B799180937100230EE000BF00E02C
:103AA00000BF97F82730013387F8273097F8272091
:103AB000FB789A42B1D34FF0FF3318462837BD4602
:103AC00080BD000080B58CB004AF78600B46FB7001
:103AD0004FF0FF33BB614FF0FF337B617868FFF736
:103AE0006BFE034683F00103DBB2002B13D0484B7F
:103AF0001B78002B0CD0474B029340F28F124FF0F3
:103B00000003CDE90023444A0221444801F0C0FFEC
:103B10004FF0FF3378E00023FB775EE0786802F037
:103B200084FE78617B69B3F1FF3F11D1384B1B787C
:103B3000002B4CD03A4B02934FF4CD724FF0000360
:103B4000CDE90023344A0221344801F0A1FF3EE0D0
:103B500007F10C030722FF2118464DF0A1F807F1E9
:103B60000C03184602F093FEB861BB69B3F1FF3F46
:103B700011D1274B1B78002B2BD02A4B02934FF4EB
:103B8000D1724FF00003CDE90023234A02212348DC
:103B900001F07EFF1DE007F10C0379681846FFF77E
:103BA000F5FE0346002B15D0194B1B78002B0CD0CB
:103BB0001D4B029340F2A9124FF00003CDE9002300
:103BC000154A0221154801F063FF00231CE000BFE5
:103BD00000E000BFFB7F0133FB77FA7FFB789A425E
:103BE0009CD30B4B1B78002B0CD0104B02934FF443
:103BF000D7724FF00003CDE90023074A022107489E
:103C000001F046FF4FF0FF3318462037BD4680BD18
:103C10003047FE1FD4A9060024AC060034A90600D4
:103C2000FCA9060024AA06004CAA060068AA060001
:103C300080B58EB000AF786039604FF0FF337B63A2
:103C400000233B630023FB6207F108030A220021E3
:103C500018464DF025F807F11403072200211846F5
:103C60004DF01EF807F124030722FF2118464DF0FE
:103C700017F807F1240305211846FFF7B9FE78630A
:103C80007B6BB3F1FF3F02D14FF0FF3350E007F100
:103C9000240207F1080311461846FFF7EBFD07F170
:103CA000080301211846FDF7CBFE07F1080207F1D2
:103CB000140311461846FFF700FE01F0FFF83863C1
:103CC000386B01F007F9034640F2DB52934202D908
:103CD0004FF0FF332CE001F0F1F8F86207F11C031C
:103CE00001211846FFF784FE78637B6BB3F1FF3F39
:103CF0001CD007F11C0207F1140311461846FFF708
:103D000045FE0346002BDBD07B681A4607F11C03F7
:103D10001868106099889B7991809371F86A01F016
:103D2000D9F802463B681A60002301E000BFC7E7EC
:103D300018463837BD4680BD80B582B000AF786088
:103D40003960FFF7C3FCFFF783FC0346184601F018
:103D50005EFBFFF77DFC02463B685361FFF778FC92
:103D600002467B689B795373FFF772FC02467B68BF
:103D70005B791373FFF76CFC02467B681B79D37287
:103D8000FFF766FC02467B689B789372FFF760FC46
:103D900002467B685B785372FFF75AFC02467B68E9
:103DA0001B781372FFF754FC034614225A74FFF772
:103DB0004FFC034600229A73FFF74AFC0346002299
:103DC000DA73FFF745FC0346184601F044FBFFF7A2
:103DD0005BFC00BF0837BD4680BD000080B588B0E1
:103DE00004AF00237B6007F108030722FF21184678
:103DF0004CF056FF3A1D07F1080311461846FFF72D
:103E000017FF0346002B1DD03A1D07F1080311468A
:103E10001846FFF70DFF0346002B13D0184B1B78F5
:103E2000002B0CD0174B02934FF40C724FF0000391
:103E3000CDE90023144A0221144801F029FE4FF075
:103E4000FF3318E07A6807F1080311461846FFF7B8
:103E500073FF0B4B1B78002B0CD00D4B029340F2E1
:103E600037224FF00003CDE90023074A022107481B
:103E700001F00EFE002318461037BD4680BD00BF7E
:103E80003047FE1F80AA060034AC060034A90600A5
:103E9000ACAA060080B584B000AF3B1D0A22FF210A
:103EA00018464CF0FDFE3B1D1846FFF729FD7A79B8
:103EB000084BA3FB0213D9080B461B015B1AD31A4C
:103EC000DBB2002B01D1012300E00023184610379C
:103ED000BD4680BD8988888880B584B004AFFFF76F
:103EE000F5FBFFF7B5FB0346184601F090FAFFF724
:103EF000AFFB034600221A72FFF7AAFB034600221B
:103F00005A72FFF7A5FB034600229A72FFF7A0FB47
:103F100003461022DA72FFF79BFB034605221A7351
:103F2000FFF796FB034617225A73FFF791FB0346F0
:103F300000229A73FFF78CFB03460022DA73FFF727
:103F400087FB034602221A74FFF782FB0346142202
:103F50005A74FFF77DFB034600225A61FFF778FB96
:103F60000346184601F077FAFFF78EFB094B1B78E2
:103F7000002B0CD0084B029340F272224FF000034A
:103F8000CDE90023054A0221054801F081FD00BF6B
:103F9000BD4680BD3047FE1FD0AA060050AC0600CB
:103FA00034A9060080B586B000AF4FF0FF337B61C7
:103FB00007F10C030722002118464CF071FEFFF7B1
:103FC00047FB02463B46083207CA03C31A80FFF785
:103FD0003FFB0346184601F01AFAFFF739FB034688
:103FE0005A693B4611461846FDF7B4FDFFF730FB12
:103FF0000346184601F02FFA7B79BB743B797B743A
:10400000FB783B74BB78BB737B787B733B783B73EB
:104010000848FFF777FA07F10C0305211846FFF768
:1040200051FD78610448FFF76DFA7B69184618372F
:10403000BD4680BDE8AA060008AB060080B483B088
:1040400000AF786039603B685A797B689A713B6849
:104050001A797B685A713B68DA787B681A7100BFFD
:104060000C37BD465DF8047B704780B483B000AF69
:10407000786039603B689A787B689A703B685A78B8
:104080007B685A703B681A787B681A7000BF0C37DF
:10409000BD465DF8047B704780B483B000AF7860A4
:1040A00039603B685A797B689A713B681A797B68FA
:1040B0005A713B68DA787B681A713B689A787B683A
:1040C0009A703B685A787B685A703B681A787B68AC
:1040D0001A7000BF0C37BD465DF8047B70470000C6
:1040E00080B586B004AF4FF0FF337B604FF0FF33F5
:1040F0003B6002F005FCFFF7ABFA03461946274880
:1041000001F044F978607B68002B10D0244B1B78B9
:10411000002B0CD0234B029340F2E3224FF000031C
:10412000CDE90023204A0221204801F0B1FCFFF72D
:10413000BFFAFFF7A9FAFFF751FE38603B68B3F109
:10414000FF3F15D1FFF7C8FEFFF7E6FA144B1B78C7
:10415000002B1FD0164B029340F2F6224FF00003C3
:10416000CDE90023104A0221104801F091FC11E032
:104170000B4B1B78002B0ED00E4B029340F2F92212
:104180004FF00003CDE90023074A0221074801F060
:104190007FFC00E000BF0837BD4680BD24AB0600B1
:1041A0003047FE1F2CAB060068AC060034A90600A1
:1041B0004CAB06006CAB060080B500AFFFF76AFEA3
:1041C0000346002B01D0002310E0094B1B68184662
:1041D00000F080FE0346074A934206D900F06EFEC7
:1041E0000346034A1360012300E00023184680BD04
:1041F0005047FE1FDFE60B0080B582B000AF4FF0E6
:10420000FF337B60FFF7D0FA0346002B1CD0114B25
:104210001B6801330F4A1360FFF7E0FD78607B688D
:10422000002B05D1FFF79CFA0A4B00221A600EE022
:10423000084B1B681E2B0AD9064B00221A60FFF799
:10424000B1FEFFF78DFA02E0024B00221A60083738
:10425000BD4680BD5447FE1F80B586B004AF4FF009
:10426000FF337B601C4B1B68184600F033FE03468F
:10427000B3F57A7F2CD900F021FE03461A46164B7F
:104280001A60FFF799FF0346002B1ED0FFF7A6FD2B
:1042900078607B68002B05D1FFF762FA0F48FFF7C3
:1042A00031F912E00E4B1B78002B0CD00D4B029312
:1042B00040F272324FF00003CDE900230A4A022196
:1042C0000A4801F0E5FBFFF727FAFFF795FF00E04A
:1042D00000BF0837BD4680BD5847FE1FACAA060088
:1042E0003047FE1F80AB060078AC060034A90600FC
:1042F00080B58CB004AF03463960FB7107F114033D
:104300000722002118464CF0CBFC4FF0FF33FB6135
:1043100007F108031846FFF7F3FA07F1080207F15F
:10432000140311461846FFF7B7FEFB79022B14D091
:10433000022B19DC002B02D0012B07D014E007F16F
:10434000140339681846FFF779FE10E007F11403EB
:1043500039681846FFF789FE09E007F11403396848
:104360001846FFF799FE02E04FF0FF3333E007F104
:1043700014031846FFF720FA034683F00103DBB26B
:10438000002B02D04FF0FF3325E007F1140300218A
:104390001846FFF7D1FC07F1140305211846FFF773
:1043A00091FBF861FB69B3F1FF3F02D10C48FFF7C5
:1043B000A9F80C4B1B78002B0CD00B4B029340F24E
:1043C000CF324FF00003CDE90023084A022108480C
:1043D00001F05EFB002318462037BD4680BD00BFBC
:1043E000A4AB06003047FE1FC4AB060090AC06002D
:1043F00034A9060080B584B000AF78600B46FB702E
:104400000023BB600023FB730CE0FB7B342202FB28
:1044100003F37A681344184600F06DFFB860FB7B25
:104420000133FB73FA7BFB789A42EED300BF00BFE7
:104430001037BD4680BD80B584B000AF78600B46B4
:10444000FB700023BB600023FB7330E0FB7B342256
:1044500002FB03F37A681344DB6A002B08D0FB7B72
:10446000342202FB03F37A681344DB6A9847B8608E
:10447000FB7B342202FB03F37A6813441B6BB3F516
:104480007A7F11D3FB7B342202FB03F37A68134457
:104490001B68D8B2FB7B342202FB03F37A68134417
:1044A0001B6B194600F098FEFB7B0133FB73FA7B14
:1044B000FB789A42CAD30023BB730CE0BB7B342247
:1044C00002FB03F37A681344184600F0DBFEB86081
:1044D000BB7B0133BB73BA7BFB789A42EED300BF40
:1044E00000BF1037BD4680BD80B500AF0521024832
:1044F000FFF7A1FF00BF80BDEC02FE1F80B500AF3B
:1045000005210248FFF776FF00BF80BDEC02FE1FC9
:1045100080B485B000AF78600B46FB707B68002BE1
:1045200002D0FB78002B01D100231EE00023FB60AA
:1045300016E0FB687A6813441B7803F00F03092B1D
:1045400001DD002311E0FB687A6813441B7803F057
:10455000F003902B01DD002307E0FB680133FB60D3
:10456000FB78FA689A42E4DB012318461437BD460B
:104570005DF8047B704780B586B000AFF8600B46ED
:104580007A60FB72FB68002B02D0FB7A002B02D111
:104590004FF0FF3345E0FB7A1946F868FFF7B8FFA4
:1045A000034683F00103DBB2002B02D04FF0FF3350
:1045B00037E00023FB8200233B7500237B7528E056
:1045C000FB7A5A1E7B7DD31A1A46FB6813441B786C
:1045D0003B75FB8A1A46920013441A4691001A460C
:1045E0000B4613449B009AB23B7D1B09DBB29BB286
:1045F000194689000B445B009BB213449AB23B7D81
:104600009BB203F00F039BB21344FB827B7D01330B
:104610007B757A7DFB7A9A42D2D37B68FA8A1A80BC
:10462000002318461837BD4680BD80B485B000AF62
:1046300078607B681B889BB2FB81FB891846143726
:10464000BD465DF8047B704780B485B000AF7860EC
:104650007B681B68FB60FB6818461437BD465DF835
:10466000047B704780B584B000AF786007F1080321
:104670000822796818464CF0FDF9D7E90223104664
:1046800019461037BD4680BD80B485B000AF786054
:104690007B681B889BB2FB81B7F90E301846143734
:1046A000BD465DF8047B704780B485B000AF78608C
:1046B0007B681B68FB60FB6818461437BD465DF8D5
:1046C000047B704780B584B000AF786007F10803C1
:1046D0000822796818464CF0CDF9D7E90223104634
:1046E00019461037BD4680BD80B485B000AF7860F4
:1046F0007B681B68FB60FB6807EE903AB0EE670AC8
:104700001437BD465DF8047B704780B584B000AFB8
:10471000786007F108030822796818464CF0AAF976
:10472000D7E9022343EC172BB0EE470AF0EE670AF5
:104730001037BD4680BD80B483B000AF03463960FA
:10474000FB80FA883B681A8000BF0C37BD465DF8D5
:10475000047B704780B483B000AF786039607A68BA
:104760003B681A6000BF0C37BD465DF8047B70479C
:1047700080B485B000AF78607B681B889BB2FB81FA
:10478000FB895BBA9BB218461437BD465DF8047BC3
:10479000704780B485B000AF78607B681B68FB60B1
:1047A000FB681A0EFB681B0A03F47F431A43FB687D
:1047B0001B0203F47F031A43FB681B0613431846CE
:1047C0001437BD465DF8047B70472DE9B04F9AB0B1
:1047D00000AFF86507F160030822F96D18464CF048
:1047E00049F9D7E918234FF000044FF000051C0EDB
:1047F0000025D7E918234FF000004FF00001180AF8
:10480000002100F47F484FF0000944EA08033B65AB
:1048100045EA09037B65D7E918234FF000004FF004
:104820000001100E40EA0320190E00F47F0A4FF039
:10483000000BD7E914120B4643EA0A03BB64134684
:1048400043EA0B03FB64D7E918234FF000004FF055
:104850000001100A40EA0360190A00F07F433B643C
:1048600000237B64D7E912452346D7E910010246AD
:104870001343BB632B460A461343FB63D7E9182354
:104880004FF000004FF00001190241EA12611002DE
:1048900000233B6301F0FF037B63D7E90E4523460A
:1048A000D7E90C0102461343BB622B460A46134369
:1048B000FB62D7E918234FF000004FF00001190602
:1048C00041EA1221100600233B6201F47F437B6220
:1048D000D7E90A452346D7E9080102461343BB61DD
:1048E0002B460A461343FB61D7E918014FF000023B
:1048F0004FF00003030200220021396103F47F031B
:104900007B61D7E906452346D7E9040102461343F4
:10491000BB602B460A461343FB60D7E918014FF0F2
:1049200000024FF0000303060022D7E902452146AA
:1049300011433960294619437960D7E900231046AD
:1049400019466837BD46BDE8B08F80B483B000AF6C
:1049500003463960FB80FB885BBA9BB2FB80FA8818
:104960003B681A8000BF0C37BD465DF8047B70477A
:1049700080B483B000AF786039607B681A0E7B68C2
:104980001B0A03F47F431A437B681B0203F47F0373
:104990001A437B681B0613437B607A683B681A6086
:1049A00000BF0C37BD465DF8047B704780B487B00C
:1049B00000AFF860B96011461A460B46FB7113460A
:1049C000BB71FB79FB75BB79BB7513E0FB685A1CA7
:1049D000FA601A78FB7D5340DBB23B610F4A3B69BA
:1049E00013441A78BB7D5340FB750D4A3B69134451
:1049F0001B78BB75BB685A1EBA60002BE6D1FB7DE5
:104A00001B021AB2BB7D1BB213431BB29BB21846EA
:104A10001C37BD465DF8047B704700BFA0AC0600A4
:104A2000A0AD060080B586B000AFF860B9607A60CE
:104A3000FF23FF22B968F868FFF7B8FF0346FB823F
:104A4000FB8A79681846FFF776FE00BF1837BD4627
:104A500080BD000080B58AB004AFF860B9607A60AC
:104A60007B8000237B61FB68002B05D07B68002BDB
:104A700002D07B88012B0FD81D4B02934FF00D0203
:104A80004FF00003CDE900231A4A04211A4800F030
:104A9000FFFF4FF0FF3326E0FB6801221946B8689C
:104AA00000F0FBFC78617B69002B0FD0134B029365
:104AB0004FF014024FF00003CDE900230D4A04210A
:104AC0000D4800F0E5FF4FF0FF330CE0FB687A681B
:104AD0005A60FB687A881A81FB6800225A81FB6859
:104AE00000229A81002318461837BD4680BD00BFBA
:104AF000A4AE0600FCAE0600A0AE0600CCAE0600DA
:104B000080B586B000AFF860B9601346FB80002323
:104B1000FB8200237B820023BB82FB68002B01D138
:104B2000002342E0FB68184600F0F9FCFB685B8953
:104B30001A46FB681B891344FA6892899B1A013B49
:104B4000FA68128993FBF2F101FB02F29B1A7B8255
:104B5000FA887B8A9A4202D97B8AFB821CE0FB8816
:104B6000FB8219E0BB8ABA681A44FB685B68F96883
:104B700089890B4412781A70BB8A0133BB82FB68A7
:104B80009B890133FA68128993FBF2F101FB02F26F
:104B90009B1A9AB2FB689A81BA8AFB8A9A42E1D33D
:104BA000FB68184600F0DFFCFB8A18461837BD4644
:104BB00080BD90B58FB000AF0446084611461A4636
:104BC0002346FB710346BB710B467B7113463B7159
:104BD0004FF000024FF00003C7E90C23FB79643368
:104BE0003B62BB79013BFB617B79BB613B797B61BC
:104BF00097F848303B6197F84C30FB600023FB622C
:104C000007F10C0318464CF09FF902460B46C7E922
:104C10000C233B6B18463C37BD4690BD80B584B035
:104C200000AF786039607B68DA783B68DBB21344A8
:104C3000DAB27B68DA707B685B7A9BB21A469200C4
:104C400013441A4691001A460B4613449B009AB22D
:104C50007B685B799BB21344FB817B681A79FB8983
:104C60001146184600F094F903467B737B68DB78A5
:104C70007A7B9A4219D27B68DA787B7BD31ADAB2D4
:104C80007B68DA707B681B790133DAB27B681A7152
:104C90007B681B790C2B08D97B685B790133DAB20E
:104CA0007B685A717B6801221A717B6858797B682E
:104CB00019797B68DB781A4600F094F903461A46A6
:104CC0007B681A7200BF1037BD4680BD80B584B0C6
:104CD00000AF786039603B68FB60FB683E4AA2FB2E
:104CE00003235B093B60FA683B4BA3FB02135909A2
:104CF0000B461B015B1A9B00D31AFB607B681A787A
:104D0000FB68DBB21344DAB27B681A707B681B78ED
:104D10003B2B08D97B681B783C3BDAB27B681A7066
:104D20003B6801333B603B68FB60FB682A4AA2FB9F
:104D300003235B093B60FA68274BA3FB0213590965
:104D40000B461B015B1A9B00D31AFB607B685A78E9
:104D5000FB68DBB21344DAB27B685A707B685B781D
:104D60003B2B08D97B685B783C3BDAB27B685A7096
:104D70003B6801333B603B68FB60FB68174AA2FB62
:104D800003231B093B60FA68144BA3FB02131909A8
:104D90000B465B000B44DB00D31AFB607B689A7800
:104DA000FB68DBB21344DAB27B689A707B689B784D
:104DB000172B08D97B689B78183BDAB27B689A700E
:104DC0003B6801333B6039687868FFF727FF00BF15
:104DD0001037BD4680BD00BF89888888ABAAAAAAC3
:104DE00080B584B000AF786039607B68002B22D03A
:104DF0003B68FB600023BB60FB68114AA2FB0323F6
:104E00009B09BB60FB680E4AA2FB031292094FF498
:104E10007A7101FB02F29B1AFB60FB681B0ADAB293
:104E20007B68DA71FB68DAB27B689A71B968786876
:104E3000FFF74CFF00E000BF1037BD4680BD00BF4C
:104E4000D34D621080B586B000AF786007F10803DB
:104E50000A22002118464BF023FF07F108031846E9
:104E600001F0E6FF78617B69B3F1FF3F02D14FF0BB
:104E7000FF331EE07A7B7B685A713A7B7B681A713C
:104E8000FA7A7B68DA70BA7A7B689A707A7A7B6889
:104E90005A703A7A7B681A70FA7B7B68DA71BA7B4F
:104EA0007B689A713A7C7B681A727A7C7B685A724A
:104EB000002318461837BD4680BD000080B400AFFF
:104EC000034B1B681846BD465DF8047B704700BF66
:104ED000F4DA022080B582B000AF7860FFF7EEFF11
:104EE00002467B68D31A18460837BD4680BD80B598
:104EF00088B000AF4FF000024FF00003C7E906236F
:104F00003B46184642F042FD03467B617B69002B1D
:104F100005D1D7E90023C7E90623BB6900E00023D8
:104F200018462037BD4680BD80B485B000AF03462B
:104F3000FB800023FB73FB8803F003039BB2002B71
:104F40001CD1FB88114AA2FB03125209642101FB08
:104F500002F29B1A9BB2002B01D00123FB73FB884A
:104F60000A4AA2FB0312D2094FF4C87101FB02F2F4
:104F70009B1A9BB2002B01D10123FB73FB7B1846CC
:104F80001437BD465DF8047B704700BF1F85EB51A9
:104F900080B582B000AF03460A46FB8013467B71A2
:104FA0007B79022B0AD1FB881846FFF7BDFF034629
:104FB000002B01D01D2310E01C230EE07B79042B75
:104FC00008D07B79062B05D07B79092B02D07B7921
:104FD0000B2B01D11E2300E01F2318460837BD46C6
:104FE00080BD000080B485B000AF0346FB710B4666
:104FF000BB7113467B711423FB72BB79022B1ED845
:10500000BB790C33BB71FA79FB7A642101FB03F3A2
:105010001344013BFB60FB7A1A4692001A44D2000B
:10502000D31A9B00DAB2FB68DBB21344FB71FB6856
:10503000274A82FB03125211DB17D31AFB72FB794A
:10504000FB60FB799B08DBB21A46FB681344FB60EC
:10505000FB7A9B08DBB21A46FB681344FB60BB7902
:1050600001331A2202FB03F31A4A82FB0312921045
:10507000DB17D31AFA681344FB607B79013BFA68AB
:105080001344FB60FB7A5B00FA68D31AFB6002E012
:10509000FB680733FB60FB68002BF9DBFA680E4BFB
:1050A00083FB021313449910D317C91A0B46DB0074
:1050B0005B1AD11A0B46FB72FB7A002B01D1072336
:1050C000FB72FB7A18461437BD465DF8047B7047C7
:1050D0001F85EB51676666669324499280B500AFE1
:1050E000FFF7ECFE0346034A1360012001F085FE42
:1050F00000BF80BDE483FE1F80B586B004AF304B97
:105100001B681846FFF7E6FE0346642B51D92D4B6A
:105110001B78002B4FD101F081FEFFF7CFFE034635
:10512000274A13600023FB713FE0FA7926491346B2
:105130005B0013449B000B441B7883F00103DBB23C
:10514000002B2ED1FA79204913465B0013449B00B3
:105150000B4404331B681846FFF7BCFE0146FA797E
:10516000194813465B0013449B00034408331B6833
:10517000994217D9FB790393144B02934FF03B02EA
:105180004FF00003CDE90023114A0421114800F03B
:105190007FFC0C4B01221A7042F2107000F0E6F80E
:1051A0000AE000BFFB790133FB71FB790A2BBCD904
:1051B00002E000BF00E000BF0837BD4680BD00BF71
:1051C000E483FE1FE083FE1F5C83FE1F18AF060012
:1051D00038AF060014AF060090B583B000AF0346A9
:1051E0003960FB71FB790A2B1ED8FA7910491346F6
:1051F0005B0013449B000B4401221A70FC79FFF7FB
:105200005DFE02460A4923465B0023449B000B4493
:1052100004331A60FA79064913465B0013449B0075
:105220000B4408333A681A6000BF0C37BD4690BD86
:105230005C83FE1F90B583B000AF0346FB71FB7922
:105240000A2B0BD8FC79FFF739FE024605492346A5
:105250005B0023449B000B4404331A6000BF0C37EF
:10526000BD4690BD5C83FE1F80B582B000AF786004
:10527000FFF734FFFFF740FFFFF73EFF642000F029
:1052800059F8F9E780B588B004AF78600023FB7364
:105290007B685B791A067B689B791B041A437B68E1
:1052A000DB791B0213437A68127A1343BB607B6875
:1052B00000221A717B6899697B68DA697B68186AD1
:1052C0007B680293002301934FF40073009303461D
:1052D000B86842F0CDFD0346FB73FB7B002B04D185
:1052E0007B6801221A71002301E04FF0FF3318465A
:1052F0001037BD4680BD80B584B000AF7860002314
:10530000FB737B6818687B68596A7B689B6A1A46DE
:1053100042F0F0FD0346FB73FB7B002B04D17B685E
:1053200002221A71002301E04FF0FF3318461037B4
:10533000BD4680BD80B582B000AF78607B684FF419
:105340007A7203FB02F2054B1B68B2FBF3F31846BB
:1053500042F0EEFD00BF0837BD4680BD04280700BF
:1053600080B500AF42F01AFE00BF80BD80B582B0AC
:1053700000AF78607B68002B02D07868FFF7DAFF17
:1053800038F0A0F900BF0837BD4680BD80B586B0B3
:1053900002AF786039604FF0FF33FB607B68002B11
:1053A00002D03B68002B01D1FB682CE07B6893F9AD
:1053B0000030DBB21A067B68013393F90030DBB2B0
:1053C0001B041A437B68023393F90030DBB21B02E3
:1053D00013437A68033292F90020D2B243EA020002
:1053E0003B68009300235422012142F065FB0346F1
:1053F000FB72FB7A002B02D10023FB6002E04FF02E
:10540000FF33FB60FB6818461037BD4680BD80B592
:1054100084B000AF78604FF0FF33FB607B68002BF7
:1054200002D14FF0FF3312E07B681B68002200219D
:10543000184642F0F9FB0346FB72FB7A002B02D1BF
:105440000023FB6002E04FF0FF33FB60FB6818466F
:105450001037BD4680BD80B584B000AF78604FF096
:10546000FF33FB607B68002B02D14FF0FF3310E06D
:105470007B681B68184642F043FC0346FB72FB7ACC
:10548000002B02D10023FB6002E04FF0FF33FB60F2
:10549000FB6818461037BD4680BD80B588B002AFA6
:1054A000F860B9607A604FF0FF337B61FB68002BD6
:1054B00002D0BB68002B01D17B692CE0FB6893F91B
:1054C0000030DBB21A06FB68013393F90030DBB21F
:1054D0001B041A43FB68023393F90030DBB21B0252
:1054E0001343FA68033292F90020D2B243EA020071
:1054F0007968BB6800930023542242F0DDFA03462A
:10550000FB74FB7C002B02D100237B6102E04FF097
:10551000FF337B617B6918461837BD4680BD80B577
:1055200084B000AF78604FF0FF33FB607B68002BE6
:1055300002D14FF0FF3312E07B681B68002200218C
:10554000184642F071FB0346FB72FB7A002B02D136
:105550000023FB6002E04FF0FF33FB60FB6818465E
:105560001037BD4680BD80B584B000AF78604FF085
:10557000FF33FB607B68002B02D14FF0FF3310E05C
:105580007B681B68184642F0BBFB0346FB72FB7A44
:10559000002B02D10023FB6002E04FF0FF33FB60E1
:1055A000FB6818461037BD4680BD000080B582B04C
:1055B00000AF786039607B68044A062138683DF0A6
:1055C00053FD00BF0837BD4680BD00BF78AF060061
:1055D00080B487B000AFF860B9607A607B687B61A7
:1055E0000DE0FB685A1CFA60FF2B0ED87A68531C3A
:1055F0007B60BB68591CB96092F900201A707B6807
:1056000093F90030002BECD100E000BF7A687B6991
:10561000D31A18461C37BD465DF8047B704700005E
:10562000F0B58DB006AF78600B467B807B68002BB1
:105630002BD07B88182B28D907F108031846FFF7D1
:1056400001FC03467B617B69002B1FD17B7B03F54B
:10565000FA623B7B1946FB7A1846BB7A1C467B7A7A
:105660001D463B7A1E46FB7B1B0297F80EC0634427
:105670000593049603950294019000911346054A00
:10568000192178683DF0F0FC00E000BF1C37BD46F2
:10569000F0BD00BF80AF060080B584B000AFF860F9
:1056A000B9601346FB80FB881A46B968F868FFF7B3
:1056B00027FA00BF1037BD4680BD000080B584B01A
:1056C00000AF4FF0FF33BB6001237B710123FB71FF
:1056D0000023BB710023FB73012243490F2003F019
:1056E0002DF9B860BB68B3F1FF3F03D13F4B0222F5
:1056F00083F8232001223E49102003F01FF9B860EF
:10570000BB68B3F1FF3F03D1384BFA2283F8242062
:10571000364B022283F820207B1D012219461120DE
:1057200003F00CF9B860BB68002B54D17B79072BD0
:105730004AD801A252F823F05957010067570100D7
:105740007557010083570100915701009F570100D1
:10575000AD570100BB5701000023FB710023FB7311
:105760000023BB7138E00123FB710023FB7300238E
:10577000BB7131E00023FB710023FB730123BB717C
:105780002AE00123FB710023FB730123BB7123E09B
:105790000023FB710123FB730023BB711CE0012379
:1057A000FB710123FB730023BB7115E00023FB7128
:1057B0000123FB730123BB710EE00123FB71012365
:1057C000FB730123BB7107E00123FB710023FB7313
:1057D0000023BB7100E000BF044AFB7B82F821304C
:1057E00000BF1037BD4680BD0B94FE1FE893FE1F1F
:1057F0000C94FE1F80B582B000AF4FF0FF337B608A
:105800004FF40063114A12491248FFF723F97860F8
:105810007B68B3F1FF3F12D04FF400630E4A0F498B
:105820000F48FFF717F978607B68B3F1FF3F08D0A6
:10583000FFF744FF074B012283F8222002E000BF5C
:1058400000E000BF0837BD4680BD00BFE883FE1FF3
:10585000A4AF0600E893FE1FE88BFE1FACAF060066
:10586000F893FE1F90B5CFB000AF0446084611462E
:1058700007F59C72A2F59C72136007F59C73A3F266
:10588000311322461A7007F59C73A3F599730246EB
:105890001A7007F59C73A3F233130A461A7007F5C2
:1058A0009C73A3F5887300221A600433FC22002144
:1058B00018464BF0F5F907F59C73A3F59673002293
:1058C0001A60043300221A605A609A60DA601A6122
:1058D0001A750023A7F834310023A7F832310023CA
:1058E000A7F83031674BC7F82C31674B93F822305B
:1058F00083F00103DBB2002B01D00023BDE0624B3B
:1059000093F8243007F59C72A2F2311212789A4271
:1059100001D00023B1E007F128034FF48072002189
:1059200018464BF0BDF9B7F8343107F1280213449B
:105930001946D7F82C01FFF71BF8B7F834310433B8
:10594000A7F83431B7F83431A7F83031B7F834312B
:105950000233A7F83431B7F83431A7F82A31B7F851
:1059600034315A1CA7F834211A4607F59C73A3F268
:10597000311393F9001007F59C73A3F588739954BC
:10598000B7F834315A1CA7F834211A4607F59C732E
:10599000A3F5997393F9001007F59C73A3F5887329
:1059A0009954B7F834315A1CA7F834211A4607F530
:1059B0009C73A3F2331393F9001007F59C73A3F5BE
:1059C0008873995407F10C0319211846FFF728FE34
:1059D000B7F83401B7F8343107F12802134407F15E
:1059E0000C021946FFF7F4FD03469AB2B7F83431BA
:1059F0001344A7F83431B7F83421B7F848311344C9
:105A0000FF2B06DDB7F83431C3F1FF03A7F83631B9
:105A100003E0B7F84831A7F83631B7F8343107F169
:105A20002802D018B7F8362107F59C73A3F59C73AC
:105A300019684BF01FF8B7F83421B7F83631134422
:105A4000A7F83431B7F83421B7F82A31D31AA7F8B8
:105A50003231B7F8303107F128021A44B7F8323141
:105A600011461846FEF771FFB7F8342107F12803F5
:105A700019460648FFF710FE0023184607F59E77E3
:105A8000BD4690BD23222222E893FE1FF893FE1FFD
:105A900080B5D8B000AF07F5B073A3F5AA7318604E
:105AA00007F5B073A3F5AE731A6007F5B073A3F2F0
:105AB00055130A461A700023A7F85E314FF02233BF
:105AC000C7F8483107F5B073A3F58C7300221A604C
:105AD0000433FC22002118464BF0E2F807F5B073BE
:105AE000A3F59A7300221A60043300221A605A60E8
:105AF0009A60DA601A611A7507F5B073A3F59E73A0
:105B000000221A6000229A8007F5B073A3F5A873EB
:105B100000221A60043300221A605A609A60DA6028
:105B20000023A7F85C31D84B93F8223083F00103AF
:105B3000DBB2002B01D00023A0E1D34B93F823303C
:105B400007F5B072A2F2551212789A4201D20023E0
:105B500094E107F148034FF48072002118464BF09E
:105B60009FF8B7F85E3107F148021344D7F848218F
:105B70001A60B7F85E310433A7F85E31B7F85E31CA
:105B8000A7F85C31B7F85E310233A7F85E31B7F899
:105B90005E31A7F85A3107F5B073A3F5AA731B68F5
:105BA000002B00F01481B7F85E01B7F85E3107F101
:105BB0004802D11807F5B073A3F5AA731A68FFF766
:105BC00007FD03469AB2B7F85E311344A7F85E3179
:105BD000B7F85E01B7F85E3107F148021344AB4AEB
:105BE0001946FFF7F5FC03469AB2B7F85E31134445
:105BF000A7F85E31B7F85E01B7F85E3107F14802E9
:105C0000D11807F5B073A3F255131A7813465B0049
:105C100013445B009E4A13441A46FFF7D9FC03461F
:105C20009AB2B7F85E311344A7F85E31B7F85E0157
:105C3000B7F85E3107F148021344964A1946FFF758
:105C4000C7FC03469AB2B7F85E311344A7F85E3139
:105C5000B7F85E01B7F85E3107F14802134407F167
:105C600010021946FFF7B4FC03469AB2B7F85E314A
:105C70001344A7F85E31B7F85E01B7F85E3107F15B
:105C800048021344844A1946FFF7A2FC03469AB21D
:105C9000B7F85E311344A7F85E3107F12C031921E0
:105CA0001846FFF7BDFCB7F85E01B7F85E3107F1A3
:105CB0004802134407F12C021946FFF789FC0346FA
:105CC0009AB2B7F85E311344A7F85E31B7F85E01B7
